:100000000C9462000C948A000C948A000C948A0070
:100010000C948A000C948A000C948A000C946F0350
:100020000C948A000C948A000C948A000C948A0028
:100030000C948A000C948A000C948A000C948A0018
:100040000C94CD020C948A000C943D030C9417037D
:100050000C948A000C948A000C948A000C948A00F8
:100060000C948A000C948A00000000080002010031
:100070000003040700000000000000000000000072
:10008000240027002A000000000023002600290089
:1000900000000000250028002B00040404040404D0
:1000A0000404020202020202030303030303010227
:1000B00004081020408001020408102001020408F6
:1000C0001020940311241FBECFEFD8E0DEBFCDBFB8
:1000D00011E0A0E0B1E0E6E1FBE002C005900D9286
:1000E000A432B107D9F721E0A4E2B1E001C01D922A
:1000F000A03EB207E1F710E0C2E6D0E004C02197CD
:10010000FE010E948305C136D107C9F70E94010490
:100110000C9489050C940000EDE6F0E02491E3EBEB
:10012000F0E09491EFE9F0E0E491EE23C9F02223AE
:1001300039F0233001F1A8F4213019F1223029F1EE
:10014000F0E0EE0FFF1FE057FF4FA591B4912FB7DE
:10015000F894EC91811126C090959E239C932FBF1B
:1001600008952730A9F02830C9F0243049F72091AC
:1001700080002F7D03C0209180002F772093800086
:10018000DFCF24B52F7724BDDBCF24B52F7DFBCF68
:100190002091B0002F772093B000D2CF2091B000F3
:1001A0002F7DF9CF9E2BDACF3FB7F89480912D01A8
:1001B00090912E01A0912F01B091300126B5A89BFE
:1001C00005C02F3F19F00196A11DB11D3FBFBA2FE9
:1001D000A92F982F8827BC01CD01620F711D811DA9
:1001E000911D42E0660F771F881F991F4A95D1F72E
:1001F0000895AF92BF92CF92DF92EF92FF920F934A
:100200001F93CF93DF936C017B018B01040F151FAC
:10021000EB015E01AE18BF08C017D10759F0699114
:10022000D601ED91FC910190F081E02DC601099578
:10023000892B79F7C501DF91CF911F910F91FF9025
:10024000EF90DF90CF90BF90AF900895FC01538D59
:10025000448D252F30E0842F90E0821B930B5417A0
:1002600010F0CF96089501970895FC01918D828D2D
:10027000981761F0A28DAE0FBF2FB11D5D968C91C6
:10028000928D9F5F9F73928F90E008958FEF9FEF05
:100290000895FC01918D828D981731F0828DE80FC1
:1002A000F11D858D90E008958FEF9FEF0895FC017B
:1002B000918D228D892F90E0805C9F4F821B910948
:1002C0008F739927089581E391E00E94570121E0FF
:1002D000892B09F420E0822F089580E090E0892B9B
:1002E00029F00E94630181110C9400000895FC0123
:1002F000A48DA80FB92FB11DA35ABF4F2C91848D87
:1003000090E001968F739927848FA689B7892C93E3
:10031000A089B1898C91837080648C93938D848D36
:10032000981306C00288F389E02D80818F7D808339
:100330000895EF92FF920F931F93CF93DF93EC01F9
:1003400081E0888F9B8D8C8D98131AC0E889F9897C
:10035000808185FF15C09FB7F894EE89FF8960837F
:10036000E889F98980818370806480839FBF81E000
:1003700090E0DF91CF911F910F91FF90EF90089542
:10038000F62E0B8D10E00F5F1F4F0F731127E02E1D
:100390008C8D8E110CC00FB607FCFACFE889F98955
:1003A000808185FFF5CFCE010E947701F1CFEB8DE3
:1003B000EC0FFD2FF11DE35AFF4FF0829FB7F89429
:1003C0000B8FEA89FB8980818062CFCFCF93DF9347
:1003D000EC01888D8823B9F0AA89BB89E889F9895D
:1003E0008C9185FD03C0808186FD0DC00FB607FC92
:1003F000F7CF8C9185FFF2CF808185FFEDCFCE01C5
:100400000E947701E9CFDF91CF9108950F931F9359
:10041000E091D801F091D90180819091D201892B8E
:100420008083E091D401F091D50190818091D20137
:100430008095892380838BE090E00197F1F7E0912C
:10044000D401F091D50180819091D201892B8083D4
:1004500083E290E00197F1F7E091D401F091D501AA
:1004600090818091D201809589238083E091D80189
:10047000F091D90190818091D20180958923808368
:10048000E091D601F091D70180819091D301892329
:1004900029F090E080E01F910F9108950E94D40010
:1004A000AB01BC018091DA019091DB01B0E0A0E0EA
:1004B0008855994EAF4FBF4F840F951FA61FB71F8A
:1004C0008093DC019093DD01A093DE01B093DF0106
:1004D000E091D601F091D70180819091D3018923D9
:1004E00081F40E94D4000091DC011091DD01209183
:1004F000DE013091DF01061717072807390740F79B
:10050000C8CF0E94D4002091DA013091DB01620F44
:10051000731F811D911D6093DC017093DD01809339
:10052000DE019093DF01E091D601F091D701808147
:100530009091D301892381F00E94D4000091DC01C5
:100540001091DD012091DE013091DF0106171707C0
:100550002807390740F79DCF0E94D4002091DA0187
:100560003091DB01A901455051092091DC01309106
:10057000DD01FA01E21BF30BCF01860F971F8BCF32
:10058000FC0101900020E9F73197AF01481B590B9E
:10059000BC0181E391E00C94F9001F920F920FB619
:1005A0000F9211242F933F938F939F93AF93BF93F9
:1005B0008091290190912A01A0912B01B0912C01E9
:1005C0003091280123E0230F2D3758F50196A11D06
:1005D000B11D209328018093290190932A01A093B3
:1005E0002B01B0932C0180912D0190912E01A091AF
:1005F0002F01B09130010196A11DB11D80932D01F5
:1006000090932E01A0932F01B0933001BF91AF9131
:100610009F918F913F912F910F900FBE0F901F9040
:10062000189526E8230F0296A11DB11DD2CF1F9267
:100630000F920FB60F9211242F933F934F935F9316
:100640006F937F938F939F93AF93BF93EF93FF939A
:1006500081E391E00E947701FF91EF91BF91AF910B
:100660009F918F917F916F915F914F913F912F91CA
:100670000F900FBE0F901F9018951F920F920FB6FC
:100680000F9211242F938F939F93EF93FF93E091F9
:100690004101F09142018081E0914701F0914801D0
:1006A00082FD1BC0908180914A018F5F8F732091E2
:1006B0004B01821741F0E0914A01F0E0EF5CFE4F00
:1006C000958F80934A01FF91EF919F918F912F9188
:1006D0000F900FBE0F901F9018958081F4CF1F923E
:1006E0000F920FB60F9211242F933F934F935F9366
:1006F0006F937F938F939F93AF93BF93EF93FF93EA
:10070000F0E0E0E00995FF91EF91BF91AF919F91EB
:100710008F917F916F915F914F913F912F910F90AA
:100720000FBE0F901F901895E1E3F1E01382128243
:1007300088EE93E0A0E0B0E084839583A683B7833E
:1007400084E091E09183808385EC90E095878487B5
:1007500084EC90E09787868780EC90E0918B808B8B
:1007600081EC90E0938B828B82EC90E0958B848B74
:1007700086EC90E0978B868B118E128E138E148EE2
:10078000E9EBF0E0E491AEECB1E01496EC93149751
:10079000EAEBF0E0E4911596EC93159785EA90E08A
:1007A000FC012491E22FF0E0EE0FFF1FE057FF4F16
:1007B0002591349117963C932E931697E6EAF0E034
:1007C000E491F0E0EE0FFF1FEA57FF4F25913491BF
:1007D00019963C932E931897FC018491E82FF0E032
:1007E000EE0FFF1FE458FF4F859194911B969C9349
:1007F0008E931A978DE89FE61D969C938E931C9777
:100800000895CF93DF93CDB7DEB7A1970FB6F894D5
:10081000DEBF0FBECDBF789484B5826084BD84B541
:10082000816084BD85B5826085BD85B5816085BDEB
:1008300080916E00816080936E00109281008091A3
:10084000810082608093810080918100816080932B
:100850008100809180008160809380008091B10050
:1008600084608093B1008091B00081608093B0007B
:1008700080917A00846080937A0080917A0082600F
:1008800080937A0080917A00816080937A008091D1
:100890007A00806880937A001092C100E091410153
:1008A000F091420182E08083E0913D01F0913E01B0
:1008B0001082E0913F01F09140018FEC8083109213
:1008C0004901E0914501F091460186E08083E09185
:1008D0004301F0914401808180618083E091430174
:1008E000F0914401808188608083E0914301F09120
:1008F0004401808180688083E0914301F09144014C
:1009000080818F7D808372E7472E512C612C712C62
:10091000E0E02E2EE0E03E2E82E191E00E94C00257
:100920000E940602BC0190E080E029E330E040E054
:1009300050E00E94610519A28E010F5D1F4FCA0190
:10094000B9012AE030E040E050E00E946105605DBE
:10095000F80162938F01211531054105510579F7A1
:10096000309719F0CF010E94C0028CE191E00E9403
:10097000C00280E291E00E94C0020E9406020E9432
:100980000602BC0190E080E0A30192010E94610593
:10099000A901E3EBF0E01491EFE9F0E08491882302
:1009A00099F090E0880F991FFC01E458FF4FA59142
:1009B000B491FC01E057FF4F659174918FB7F894A3
:1009C0009C91192B1C938FBF4115510599F580E01F
:1009D0000E948C000E94D4004B015C0184E1C82E6F
:1009E000D12CE12CF12C0E94D400681979098A09D4
:1009F0009B09683E734081059105A8F3F1E0CF1A89
:100A0000D108E108F10828EE820E23E0921EA11C15
:100A1000B11CC114D104E104F10429F721143104FB
:100A200009F47ACF0E946301882309F475CF0E94EC
:100A3000000072CF4F3F510511F481E0C9CFEDE6C0
:100A4000F0E08491833019F140F48130B1F08230CC
:100A5000C9F0403851058CF7BACF873011F1883092
:100A600041F18430B1F780918000806280938000F2
:100A700030938B0020938A00ADCF84B5806884BD0D
:100A800027BDA8CF84B5806284BD28BDA3CF809147
:100A900080008068809380003093890020938800D4
:100AA00099CF8091B00080688093B0002093B3000C
:100AB00091CF8091B00080628093B0002093B40009
:100AC00089CFA1E21A2EAA1BBB1BFD010DC0AA1FD4
:100AD000BB1FEE1FFF1FA217B307E407F50720F0A7
:100AE000A21BB30BE40BF50B661F771F881F991F22
:100AF0001A9469F760957095809590959B01AC016B
:100B0000BD01CF010895EE0FFF1F0590F491E02D78
:060B10000994F894FFCFE8
:100B1600000000009901F9002601E60157013501A0
:100B2600490164697374616E63653A0020636D0000
:040B36000D0A0000A4
:00000001FF
